{
	"Upvote.sol": {
		"UpvoteManager": {
			"abi": [
				{
					"anonymous": false,
					"inputs": [
						{
							"indexed": true,
							"internalType": "address",
							"name": "creator",
							"type": "address"
						},
						{
							"indexed": true,
							"internalType": "uint256",
							"name": "canvasId",
							"type": "uint256"
						},
						{
							"indexed": false,
							"internalType": "uint256",
							"name": "newVoteCount",
							"type": "uint256"
						}
					],
					"name": "CanvasUpvoted",
					"type": "event"
				},
				{
					"inputs": [
						{
							"internalType": "address",
							"name": "creator",
							"type": "address"
						},
						{
							"internalType": "uint256",
							"name": "canvasId",
							"type": "uint256"
						}
					],
					"name": "getUpvotes",
					"outputs": [
						{
							"internalType": "uint256",
							"name": "",
							"type": "uint256"
						}
					],
					"stateMutability": "view",
					"type": "function"
				},
				{
					"inputs": [
						{
							"internalType": "address",
							"name": "creator",
							"type": "address"
						},
						{
							"internalType": "uint256",
							"name": "canvasId",
							"type": "uint256"
						}
					],
					"name": "upvoteCanvas",
					"outputs": [],
					"stateMutability": "nonpayable",
					"type": "function"
				},
				{
					"inputs": [
						{
							"internalType": "address",
							"name": "",
							"type": "address"
						},
						{
							"internalType": "uint256",
							"name": "",
							"type": "uint256"
						}
					],
					"name": "upvotes",
					"outputs": [
						{
							"internalType": "uint256",
							"name": "",
							"type": "uint256"
						}
					],
					"stateMutability": "view",
					"type": "function"
				}
			],
			"devdoc": {
				"kind": "dev",
				"methods": {},
				"version": 1
			},
			"evm": {
				"assembly": "    /* \"Upvote.sol\":60:730  contract UpvoteManager {\r... */\n  mstore(0x40, 0x80)\n  callvalue\n  dup1\n  iszero\n  tag_1\n  jumpi\n  0x00\n  dup1\n  revert\ntag_1:\n  pop\n  dataSize(sub_0)\n  dup1\n  dataOffset(sub_0)\n  0x00\n  codecopy\n  0x00\n  return\nstop\n\nsub_0: assembly {\n        /* \"Upvote.sol\":60:730  contract UpvoteManager {\r... */\n      mstore(0x40, 0x80)\n      callvalue\n      dup1\n      iszero\n      tag_1\n      jumpi\n      0x00\n      dup1\n      revert\n    tag_1:\n      pop\n      jumpi(tag_2, lt(calldatasize, 0x04))\n      shr(0xe0, calldataload(0x00))\n      dup1\n      0x18a8eca5\n      eq\n      tag_3\n      jumpi\n      dup1\n      0x658cffb2\n      eq\n      tag_4\n      jumpi\n      dup1\n      0xff78421e\n      eq\n      tag_5\n      jumpi\n    tag_2:\n      0x00\n      dup1\n      revert\n        /* \"Upvote.sol\":171:233  mapping(address => mapping(uint256 => uint256)) public upvotes */\n    tag_3:\n      tag_6\n      0x04\n      dup1\n      calldatasize\n      sub\n      dup2\n      add\n      swap1\n      tag_7\n      swap2\n      swap1\n      tag_8\n      jump\t// in\n    tag_7:\n      tag_9\n      jump\t// in\n    tag_6:\n      mload(0x40)\n      tag_10\n      swap2\n      swap1\n      tag_11\n      jump\t// in\n    tag_10:\n      mload(0x40)\n      dup1\n      swap2\n      sub\n      swap1\n      return\n        /* \"Upvote.sol\":590:727  function getUpvotes(address creator, uint256 canvasId) public view returns (uint256) {\r... */\n    tag_4:\n      tag_12\n      0x04\n      dup1\n      calldatasize\n      sub\n      dup2\n      add\n      swap1\n      tag_13\n      swap2\n      swap1\n      tag_8\n      jump\t// in\n    tag_13:\n      tag_14\n      jump\t// in\n    tag_12:\n      mload(0x40)\n      tag_15\n      swap2\n      swap1\n      tag_11\n      jump\t// in\n    tag_15:\n      mload(0x40)\n      dup1\n      swap2\n      sub\n      swap1\n      return\n        /* \"Upvote.sol\":392:582  function upvoteCanvas(address creator, uint256 canvasId) public {\r... */\n    tag_5:\n      tag_16\n      0x04\n      dup1\n      calldatasize\n      sub\n      dup2\n      add\n      swap1\n      tag_17\n      swap2\n      swap1\n      tag_8\n      jump\t// in\n    tag_17:\n      tag_18\n      jump\t// in\n    tag_16:\n      stop\n        /* \"Upvote.sol\":171:233  mapping(address => mapping(uint256 => uint256)) public upvotes */\n    tag_9:\n      mstore(0x20, 0x00)\n      dup2\n      0x00\n      mstore\n      mstore(0x20, keccak256(0x00, 0x40))\n      dup1\n      0x00\n      mstore\n      keccak256(0x00, 0x40)\n      0x00\n      swap2\n      pop\n      swap2\n      pop\n      pop\n      sload\n      dup2\n      jump\t// out\n        /* \"Upvote.sol\":590:727  function getUpvotes(address creator, uint256 canvasId) public view returns (uint256) {\r... */\n    tag_14:\n        /* \"Upvote.sol\":666:673  uint256 */\n      0x00\n        /* \"Upvote.sol\":693:700  upvotes */\n      dup1\n        /* \"Upvote.sol\":693:709  upvotes[creator] */\n      0x00\n        /* \"Upvote.sol\":701:708  creator */\n      dup5\n        /* \"Upvote.sol\":693:709  upvotes[creator] */\n      0xffffffffffffffffffffffffffffffffffffffff\n      and\n      0xffffffffffffffffffffffffffffffffffffffff\n      and\n      dup2\n      mstore\n      0x20\n      add\n      swap1\n      dup2\n      mstore\n      0x20\n      add\n      0x00\n      keccak256\n        /* \"Upvote.sol\":693:719  upvotes[creator][canvasId] */\n      0x00\n        /* \"Upvote.sol\":710:718  canvasId */\n      dup4\n        /* \"Upvote.sol\":693:719  upvotes[creator][canvasId] */\n      dup2\n      mstore\n      0x20\n      add\n      swap1\n      dup2\n      mstore\n      0x20\n      add\n      0x00\n      keccak256\n      sload\n        /* \"Upvote.sol\":686:719  return upvotes[creator][canvasId] */\n      swap1\n      pop\n        /* \"Upvote.sol\":590:727  function getUpvotes(address creator, uint256 canvasId) public view returns (uint256) {\r... */\n      swap3\n      swap2\n      pop\n      pop\n      jump\t// out\n        /* \"Upvote.sol\":392:582  function upvoteCanvas(address creator, uint256 canvasId) public {\r... */\n    tag_18:\n        /* \"Upvote.sol\":497:498  1 */\n      0x01\n        /* \"Upvote.sol\":467:474  upvotes */\n      0x00\n        /* \"Upvote.sol\":467:483  upvotes[creator] */\n      dup1\n        /* \"Upvote.sol\":475:482  creator */\n      dup5\n        /* \"Upvote.sol\":467:483  upvotes[creator] */\n      0xffffffffffffffffffffffffffffffffffffffff\n      and\n      0xffffffffffffffffffffffffffffffffffffffff\n      and\n      dup2\n      mstore\n      0x20\n      add\n      swap1\n      dup2\n      mstore\n      0x20\n      add\n      0x00\n      keccak256\n        /* \"Upvote.sol\":467:493  upvotes[creator][canvasId] */\n      0x00\n        /* \"Upvote.sol\":484:492  canvasId */\n      dup4\n        /* \"Upvote.sol\":467:493  upvotes[creator][canvasId] */\n      dup2\n      mstore\n      0x20\n      add\n      swap1\n      dup2\n      mstore\n      0x20\n      add\n      0x00\n      keccak256\n      0x00\n        /* \"Upvote.sol\":467:498  upvotes[creator][canvasId] += 1 */\n      dup3\n      dup3\n      sload\n      tag_21\n      swap2\n      swap1\n      tag_22\n      jump\t// in\n    tag_21:\n      swap3\n      pop\n      pop\n      dup2\n      swap1\n      sstore\n      pop\n        /* \"Upvote.sol\":537:545  canvasId */\n      dup1\n        /* \"Upvote.sol\":528:535  creator */\n      dup3\n        /* \"Upvote.sol\":514:574  CanvasUpvoted(creator, canvasId, upvotes[creator][canvasId]) */\n      0xffffffffffffffffffffffffffffffffffffffff\n      and\n      0x1f6a5957b3d4644a8632ac7805b8c8d2f1d796489062517edc77e9170f466d7a\n        /* \"Upvote.sol\":547:554  upvotes */\n      0x00\n        /* \"Upvote.sol\":547:563  upvotes[creator] */\n      dup1\n        /* \"Upvote.sol\":555:562  creator */\n      dup7\n        /* \"Upvote.sol\":547:563  upvotes[creator] */\n      0xffffffffffffffffffffffffffffffffffffffff\n      and\n      0xffffffffffffffffffffffffffffffffffffffff\n      and\n      dup2\n      mstore\n      0x20\n      add\n      swap1\n      dup2\n      mstore\n      0x20\n      add\n      0x00\n      keccak256\n        /* \"Upvote.sol\":547:573  upvotes[creator][canvasId] */\n      0x00\n        /* \"Upvote.sol\":564:572  canvasId */\n      dup6\n        /* \"Upvote.sol\":547:573  upvotes[creator][canvasId] */\n      dup2\n      mstore\n      0x20\n      add\n      swap1\n      dup2\n      mstore\n      0x20\n      add\n      0x00\n      keccak256\n      sload\n        /* \"Upvote.sol\":514:574  CanvasUpvoted(creator, canvasId, upvotes[creator][canvasId]) */\n      mload(0x40)\n      tag_23\n      swap2\n      swap1\n      tag_11\n      jump\t// in\n    tag_23:\n      mload(0x40)\n      dup1\n      swap2\n      sub\n      swap1\n      log3\n        /* \"Upvote.sol\":392:582  function upvoteCanvas(address creator, uint256 canvasId) public {\r... */\n      pop\n      pop\n      jump\t// out\n        /* \"#utility.yul\":7:146   */\n    tag_25:\n      0x00\n        /* \"#utility.yul\":91:97   */\n      dup2\n        /* \"#utility.yul\":78:98   */\n      calldataload\n        /* \"#utility.yul\":69:98   */\n      swap1\n      pop\n        /* \"#utility.yul\":107:140   */\n      tag_27\n        /* \"#utility.yul\":134:139   */\n      dup2\n        /* \"#utility.yul\":107:140   */\n      tag_28\n      jump\t// in\n    tag_27:\n        /* \"#utility.yul\":59:146   */\n      swap3\n      swap2\n      pop\n      pop\n      jump\t// out\n        /* \"#utility.yul\":152:291   */\n    tag_29:\n      0x00\n        /* \"#utility.yul\":236:242   */\n      dup2\n        /* \"#utility.yul\":223:243   */\n      calldataload\n        /* \"#utility.yul\":214:243   */\n      swap1\n      pop\n        /* \"#utility.yul\":252:285   */\n      tag_31\n        /* \"#utility.yul\":279:284   */\n      dup2\n        /* \"#utility.yul\":252:285   */\n      tag_32\n      jump\t// in\n    tag_31:\n        /* \"#utility.yul\":204:291   */\n      swap3\n      swap2\n      pop\n      pop\n      jump\t// out\n        /* \"#utility.yul\":297:704   */\n    tag_8:\n      0x00\n      dup1\n        /* \"#utility.yul\":422:424   */\n      0x40\n        /* \"#utility.yul\":410:419   */\n      dup4\n        /* \"#utility.yul\":401:408   */\n      dup6\n        /* \"#utility.yul\":397:420   */\n      sub\n        /* \"#utility.yul\":393:425   */\n      slt\n        /* \"#utility.yul\":390:392   */\n      iszero\n      tag_34\n      jumpi\n        /* \"#utility.yul\":438:439   */\n      0x00\n        /* \"#utility.yul\":435:436   */\n      dup1\n        /* \"#utility.yul\":428:440   */\n      revert\n        /* \"#utility.yul\":390:392   */\n    tag_34:\n        /* \"#utility.yul\":481:482   */\n      0x00\n        /* \"#utility.yul\":506:559   */\n      tag_35\n        /* \"#utility.yul\":551:558   */\n      dup6\n        /* \"#utility.yul\":542:548   */\n      dup3\n        /* \"#utility.yul\":531:540   */\n      dup7\n        /* \"#utility.yul\":527:549   */\n      add\n        /* \"#utility.yul\":506:559   */\n      tag_25\n      jump\t// in\n    tag_35:\n        /* \"#utility.yul\":496:559   */\n      swap3\n      pop\n        /* \"#utility.yul\":452:569   */\n      pop\n        /* \"#utility.yul\":608:610   */\n      0x20\n        /* \"#utility.yul\":634:687   */\n      tag_36\n        /* \"#utility.yul\":679:686   */\n      dup6\n        /* \"#utility.yul\":670:676   */\n      dup3\n        /* \"#utility.yul\":659:668   */\n      dup7\n        /* \"#utility.yul\":655:677   */\n      add\n        /* \"#utility.yul\":634:687   */\n      tag_29\n      jump\t// in\n    tag_36:\n        /* \"#utility.yul\":624:687   */\n      swap2\n      pop\n        /* \"#utility.yul\":579:697   */\n      pop\n        /* \"#utility.yul\":380:704   */\n      swap3\n      pop\n      swap3\n      swap1\n      pop\n      jump\t// out\n        /* \"#utility.yul\":710:828   */\n    tag_37:\n        /* \"#utility.yul\":797:821   */\n      tag_39\n        /* \"#utility.yul\":815:820   */\n      dup2\n        /* \"#utility.yul\":797:821   */\n      tag_40\n      jump\t// in\n    tag_39:\n        /* \"#utility.yul\":792:795   */\n      dup3\n        /* \"#utility.yul\":785:822   */\n      mstore\n        /* \"#utility.yul\":775:828   */\n      pop\n      pop\n      jump\t// out\n        /* \"#utility.yul\":834:1056   */\n    tag_11:\n      0x00\n        /* \"#utility.yul\":965:967   */\n      0x20\n        /* \"#utility.yul\":954:963   */\n      dup3\n        /* \"#utility.yul\":950:968   */\n      add\n        /* \"#utility.yul\":942:968   */\n      swap1\n      pop\n        /* \"#utility.yul\":978:1049   */\n      tag_42\n        /* \"#utility.yul\":1046:1047   */\n      0x00\n        /* \"#utility.yul\":1035:1044   */\n      dup4\n        /* \"#utility.yul\":1031:1048   */\n      add\n        /* \"#utility.yul\":1022:1028   */\n      dup5\n        /* \"#utility.yul\":978:1049   */\n      tag_37\n      jump\t// in\n    tag_42:\n        /* \"#utility.yul\":932:1056   */\n      swap3\n      swap2\n      pop\n      pop\n      jump\t// out\n        /* \"#utility.yul\":1062:1367   */\n    tag_22:\n      0x00\n        /* \"#utility.yul\":1121:1141   */\n      tag_44\n        /* \"#utility.yul\":1139:1140   */\n      dup3\n        /* \"#utility.yul\":1121:1141   */\n      tag_40\n      jump\t// in\n    tag_44:\n        /* \"#utility.yul\":1116:1141   */\n      swap2\n      pop\n        /* \"#utility.yul\":1155:1175   */\n      tag_45\n        /* \"#utility.yul\":1173:1174   */\n      dup4\n        /* \"#utility.yul\":1155:1175   */\n      tag_40\n      jump\t// in\n    tag_45:\n        /* \"#utility.yul\":1150:1175   */\n      swap3\n      pop\n        /* \"#utility.yul\":1309:1310   */\n      dup3\n        /* \"#utility.yul\":1241:1307   */\n      0xffffffffffffffffffffffffffffffffffffffffffffffffffffffffffffffff\n        /* \"#utility.yul\":1237:1311   */\n      sub\n        /* \"#utility.yul\":1234:1235   */\n      dup3\n        /* \"#utility.yul\":1231:1312   */\n      gt\n        /* \"#utility.yul\":1228:1230   */\n      iszero\n      tag_46\n      jumpi\n        /* \"#utility.yul\":1315:1333   */\n      tag_47\n      tag_48\n      jump\t// in\n    tag_47:\n        /* \"#utility.yul\":1228:1230   */\n    tag_46:\n        /* \"#utility.yul\":1359:1360   */\n      dup3\n        /* \"#utility.yul\":1356:1357   */\n      dup3\n        /* \"#utility.yul\":1352:1361   */\n      add\n        /* \"#utility.yul\":1345:1361   */\n      swap1\n      pop\n        /* \"#utility.yul\":1106:1367   */\n      swap3\n      swap2\n      pop\n      pop\n      jump\t// out\n        /* \"#utility.yul\":1373:1469   */\n    tag_49:\n      0x00\n        /* \"#utility.yul\":1439:1463   */\n      tag_51\n        /* \"#utility.yul\":1457:1462   */\n      dup3\n        /* \"#utility.yul\":1439:1463   */\n      tag_52\n      jump\t// in\n    tag_51:\n        /* \"#utility.yul\":1428:1463   */\n      swap1\n      pop\n        /* \"#utility.yul\":1418:1469   */\n      swap2\n      swap1\n      pop\n      jump\t// out\n        /* \"#utility.yul\":1475:1601   */\n    tag_52:\n      0x00\n        /* \"#utility.yul\":1552:1594   */\n      0xffffffffffffffffffffffffffffffffffffffff\n        /* \"#utility.yul\":1545:1550   */\n      dup3\n        /* \"#utility.yul\":1541:1595   */\n      and\n        /* \"#utility.yul\":1530:1595   */\n      swap1\n      pop\n        /* \"#utility.yul\":1520:1601   */\n      swap2\n      swap1\n      pop\n      jump\t// out\n        /* \"#utility.yul\":1607:1684   */\n    tag_40:\n      0x00\n        /* \"#utility.yul\":1673:1678   */\n      dup2\n        /* \"#utility.yul\":1662:1678   */\n      swap1\n      pop\n        /* \"#utility.yul\":1652:1684   */\n      swap2\n      swap1\n      pop\n      jump\t// out\n        /* \"#utility.yul\":1690:1870   */\n    tag_48:\n        /* \"#utility.yul\":1738:1815   */\n      0x4e487b7100000000000000000000000000000000000000000000000000000000\n        /* \"#utility.yul\":1735:1736   */\n      0x00\n        /* \"#utility.yul\":1728:1816   */\n      mstore\n        /* \"#utility.yul\":1835:1839   */\n      0x11\n        /* \"#utility.yul\":1832:1833   */\n      0x04\n        /* \"#utility.yul\":1825:1840   */\n      mstore\n        /* \"#utility.yul\":1859:1863   */\n      0x24\n        /* \"#utility.yul\":1856:1857   */\n      0x00\n        /* \"#utility.yul\":1849:1864   */\n      revert\n        /* \"#utility.yul\":1876:1998   */\n    tag_28:\n        /* \"#utility.yul\":1949:1973   */\n      tag_57\n        /* \"#utility.yul\":1967:1972   */\n      dup2\n        /* \"#utility.yul\":1949:1973   */\n      tag_49\n      jump\t// in\n    tag_57:\n        /* \"#utility.yul\":1942:1947   */\n      dup2\n        /* \"#utility.yul\":1939:1974   */\n      eq\n        /* \"#utility.yul\":1929:1931   */\n      tag_58\n      jumpi\n        /* \"#utility.yul\":1988:1989   */\n      0x00\n        /* \"#utility.yul\":1985:1986   */\n      dup1\n        /* \"#utility.yul\":1978:1990   */\n      revert\n        /* \"#utility.yul\":1929:1931   */\n    tag_58:\n        /* \"#utility.yul\":1919:1998   */\n      pop\n      jump\t// out\n        /* \"#utility.yul\":2004:2126   */\n    tag_32:\n        /* \"#utility.yul\":2077:2101   */\n      tag_60\n        /* \"#utility.yul\":2095:2100   */\n      dup2\n        /* \"#utility.yul\":2077:2101   */\n      tag_40\n      jump\t// in\n    tag_60:\n        /* \"#utility.yul\":2070:2075   */\n      dup2\n        /* \"#utility.yul\":2067:2102   */\n      eq\n        /* \"#utility.yul\":2057:2059   */\n      tag_61\n      jumpi\n        /* \"#utility.yul\":2116:2117   */\n      0x00\n        /* \"#utility.yul\":2113:2114   */\n      dup1\n        /* \"#utility.yul\":2106:2118   */\n      revert\n        /* \"#utility.yul\":2057:2059   */\n    tag_61:\n        /* \"#utility.yul\":2047:2126   */\n      pop\n      jump\t// out\n\n    auxdata: 0xa2646970667358221220cb50d16e2c15d60d7e76f7d5b61cf76ce54cf8465c1cfcc3cf7a9ae9c94b128864736f6c63430008000033\n}\n",
				"bytecode": {
					"linkReferences": {},
					"object": "608060405234801561001057600080fd5b506103ff806100206000396000f3fe608060405234801561001057600080fd5b50600436106100415760003560e01c806318a8eca514610046578063658cffb214610076578063ff78421e146100a6575b600080fd5b610060600480360381019061005b9190610274565b6100c2565b60405161006d91906102bf565b60405180910390f35b610090600480360381019061008b9190610274565b6100e7565b60405161009d91906102bf565b60405180910390f35b6100c060048036038101906100bb9190610274565b610141565b005b6000602052816000526040600020602052806000526040600020600091509150505481565b60008060008473ffffffffffffffffffffffffffffffffffffffff1673ffffffffffffffffffffffffffffffffffffffff168152602001908152602001600020600083815260200190815260200160002054905092915050565b60016000808473ffffffffffffffffffffffffffffffffffffffff1673ffffffffffffffffffffffffffffffffffffffff168152602001908152602001600020600083815260200190815260200160002060008282546101a191906102da565b92505081905550808273ffffffffffffffffffffffffffffffffffffffff167f1f6a5957b3d4644a8632ac7805b8c8d2f1d796489062517edc77e9170f466d7a6000808673ffffffffffffffffffffffffffffffffffffffff1673ffffffffffffffffffffffffffffffffffffffff16815260200190815260200160002060008581526020019081526020016000205460405161023e91906102bf565b60405180910390a35050565b6000813590506102598161039b565b92915050565b60008135905061026e816103b2565b92915050565b6000806040838503121561028757600080fd5b60006102958582860161024a565b92505060206102a68582860161025f565b9150509250929050565b6102b981610362565b82525050565b60006020820190506102d460008301846102b0565b92915050565b60006102e582610362565b91506102f083610362565b9250827fffffffffffffffffffffffffffffffffffffffffffffffffffffffffffffffff038211156103255761032461036c565b5b828201905092915050565b600061033b82610342565b9050919050565b600073ffffffffffffffffffffffffffffffffffffffff82169050919050565b6000819050919050565b7f4e487b7100000000000000000000000000000000000000000000000000000000600052601160045260246000fd5b6103a481610330565b81146103af57600080fd5b50565b6103bb81610362565b81146103c657600080fd5b5056fea2646970667358221220cb50d16e2c15d60d7e76f7d5b61cf76ce54cf8465c1cfcc3cf7a9ae9c94b128864736f6c63430008000033",
					"opcodes": "PUSH1 0x80 PUSH1 0x40 MSTORE CALLVALUE DUP1 ISZERO PUSH2 0x10 JUMPI PUSH1 0x0 DUP1 REVERT JUMPDEST POP PUSH2 0x3FF DUP1 PUSH2 0x20 PUSH1 0x0 CODECOPY PUSH1 0x0 RETURN INVALID PUSH1 0x80 PUSH1 0x40 MSTORE CALLVALUE DUP1 ISZERO PUSH2 0x10 JUMPI PUSH1 0x0 DUP1 REVERT JUMPDEST POP PUSH1 0x4 CALLDATASIZE LT PUSH2 0x41 JUMPI PUSH1 0x0 CALLDATALOAD PUSH1 0xE0 SHR DUP1 PUSH4 0x18A8ECA5 EQ PUSH2 0x46 JUMPI DUP1 PUSH4 0x658CFFB2 EQ PUSH2 0x76 JUMPI DUP1 PUSH4 0xFF78421E EQ PUSH2 0xA6 JUMPI JUMPDEST PUSH1 0x0 DUP1 REVERT JUMPDEST PUSH2 0x60 PUSH1 0x4 DUP1 CALLDATASIZE SUB DUP2 ADD SWAP1 PUSH2 0x5B SWAP2 SWAP1 PUSH2 0x274 JUMP JUMPDEST PUSH2 0xC2 JUMP JUMPDEST PUSH1 0x40 MLOAD PUSH2 0x6D SWAP2 SWAP1 PUSH2 0x2BF JUMP JUMPDEST PUSH1 0x40 MLOAD DUP1 SWAP2 SUB SWAP1 RETURN JUMPDEST PUSH2 0x90 PUSH1 0x4 DUP1 CALLDATASIZE SUB DUP2 ADD SWAP1 PUSH2 0x8B SWAP2 SWAP1 PUSH2 0x274 JUMP JUMPDEST PUSH2 0xE7 JUMP JUMPDEST PUSH1 0x40 MLOAD PUSH2 0x9D SWAP2 SWAP1 PUSH2 0x2BF JUMP JUMPDEST PUSH1 0x40 MLOAD DUP1 SWAP2 SUB SWAP1 RETURN JUMPDEST PUSH2 0xC0 PUSH1 0x4 DUP1 CALLDATASIZE SUB DUP2 ADD SWAP1 PUSH2 0xBB SWAP2 SWAP1 PUSH2 0x274 JUMP JUMPDEST PUSH2 0x141 JUMP JUMPDEST STOP JUMPDEST PUSH1 0x0 PUSH1 0x20 MSTORE DUP2 PUSH1 0x0 MSTORE PUSH1 0x40 PUSH1 0x0 KECCAK256 PUSH1 0x20 MSTORE DUP1 PUSH1 0x0 MSTORE PUSH1 0x40 PUSH1 0x0 KECCAK256 PUSH1 0x0 SWAP2 POP SWAP2 POP POP SLOAD DUP2 JUMP JUMPDEST PUSH1 0x0 DUP1 PUSH1 0x0 DUP5 PUSH20 0xFFFFFFFFFFFFFFFFFFFFFFFFFFFFFFFFFFFFFFFF AND PUSH20 0xFFFFFFFFFFFFFFFFFFFFFFFFFFFFFFFFFFFFFFFF AND DUP2 MSTORE PUSH1 0x20 ADD SWAP1 DUP2 MSTORE PUSH1 0x20 ADD PUSH1 0x0 KECCAK256 PUSH1 0x0 DUP4 DUP2 MSTORE PUSH1 0x20 ADD SWAP1 DUP2 MSTORE PUSH1 0x20 ADD PUSH1 0x0 KECCAK256 SLOAD SWAP1 POP SWAP3 SWAP2 POP POP JUMP JUMPDEST PUSH1 0x1 PUSH1 0x0 DUP1 DUP5 PUSH20 0xFFFFFFFFFFFFFFFFFFFFFFFFFFFFFFFFFFFFFFFF AND PUSH20 0xFFFFFFFFFFFFFFFFFFFFFFFFFFFFFFFFFFFFFFFF AND DUP2 MSTORE PUSH1 0x20 ADD SWAP1 DUP2 MSTORE PUSH1 0x20 ADD PUSH1 0x0 KECCAK256 PUSH1 0x0 DUP4 DUP2 MSTORE PUSH1 0x20 ADD SWAP1 DUP2 MSTORE PUSH1 0x20 ADD PUSH1 0x0 KECCAK256 PUSH1 0x0 DUP3 DUP3 SLOAD PUSH2 0x1A1 SWAP2 SWAP1 PUSH2 0x2DA JUMP JUMPDEST SWAP3 POP POP DUP2 SWAP1 SSTORE POP DUP1 DUP3 PUSH20 0xFFFFFFFFFFFFFFFFFFFFFFFFFFFFFFFFFFFFFFFF AND PUSH32 0x1F6A5957B3D4644A8632AC7805B8C8D2F1D796489062517EDC77E9170F466D7A PUSH1 0x0 DUP1 DUP7 PUSH20 0xFFFFFFFFFFFFFFFFFFFFFFFFFFFFFFFFFFFFFFFF AND PUSH20 0xFFFFFFFFFFFFFFFFFFFFFFFFFFFFFFFFFFFFFFFF AND DUP2 MSTORE PUSH1 0x20 ADD SWAP1 DUP2 MSTORE PUSH1 0x20 ADD PUSH1 0x0 KECCAK256 PUSH1 0x0 DUP6 DUP2 MSTORE PUSH1 0x20 ADD SWAP1 DUP2 MSTORE PUSH1 0x20 ADD PUSH1 0x0 KECCAK256 SLOAD PUSH1 0x40 MLOAD PUSH2 0x23E SWAP2 SWAP1 PUSH2 0x2BF JUMP JUMPDEST PUSH1 0x40 MLOAD DUP1 SWAP2 SUB SWAP1 LOG3 POP POP JUMP JUMPDEST PUSH1 0x0 DUP2 CALLDATALOAD SWAP1 POP PUSH2 0x259 DUP2 PUSH2 0x39B JUMP JUMPDEST SWAP3 SWAP2 POP POP JUMP JUMPDEST PUSH1 0x0 DUP2 CALLDATALOAD SWAP1 POP PUSH2 0x26E DUP2 PUSH2 0x3B2 JUMP JUMPDEST SWAP3 SWAP2 POP POP JUMP JUMPDEST PUSH1 0x0 DUP1 PUSH1 0x40 DUP4 DUP6 SUB SLT ISZERO PUSH2 0x287 JUMPI PUSH1 0x0 DUP1 REVERT JUMPDEST PUSH1 0x0 PUSH2 0x295 DUP6 DUP3 DUP7 ADD PUSH2 0x24A JUMP JUMPDEST SWAP3 POP POP PUSH1 0x20 PUSH2 0x2A6 DUP6 DUP3 DUP7 ADD PUSH2 0x25F JUMP JUMPDEST SWAP2 POP POP SWAP3 POP SWAP3 SWAP1 POP JUMP JUMPDEST PUSH2 0x2B9 DUP2 PUSH2 0x362 JUMP JUMPDEST DUP3 MSTORE POP POP JUMP JUMPDEST PUSH1 0x0 PUSH1 0x20 DUP3 ADD SWAP1 POP PUSH2 0x2D4 PUSH1 0x0 DUP4 ADD DUP5 PUSH2 0x2B0 JUMP JUMPDEST SWAP3 SWAP2 POP POP JUMP JUMPDEST PUSH1 0x0 PUSH2 0x2E5 DUP3 PUSH2 0x362 JUMP JUMPDEST SWAP2 POP PUSH2 0x2F0 DUP4 PUSH2 0x362 JUMP JUMPDEST SWAP3 POP DUP3 PUSH32 0xFFFFFFFFFFFFFFFFFFFFFFFFFFFFFFFFFFFFFFFFFFFFFFFFFFFFFFFFFFFFFFFF SUB DUP3 GT ISZERO PUSH2 0x325 JUMPI PUSH2 0x324 PUSH2 0x36C JUMP JUMPDEST JUMPDEST DUP3 DUP3 ADD SWAP1 POP SWAP3 SWAP2 POP POP JUMP JUMPDEST PUSH1 0x0 PUSH2 0x33B DUP3 PUSH2 0x342 JUMP JUMPDEST SWAP1 POP SWAP2 SWAP1 POP JUMP JUMPDEST PUSH1 0x0 PUSH20 0xFFFFFFFFFFFFFFFFFFFFFFFFFFFFFFFFFFFFFFFF DUP3 AND SWAP1 POP SWAP2 SWAP1 POP JUMP JUMPDEST PUSH1 0x0 DUP2 SWAP1 POP SWAP2 SWAP1 POP JUMP JUMPDEST PUSH32 0x4E487B7100000000000000000000000000000000000000000000000000000000 PUSH1 0x0 MSTORE PUSH1 0x11 PUSH1 0x4 MSTORE PUSH1 0x24 PUSH1 0x0 REVERT JUMPDEST PUSH2 0x3A4 DUP2 PUSH2 0x330 JUMP JUMPDEST DUP2 EQ PUSH2 0x3AF JUMPI PUSH1 0x0 DUP1 REVERT JUMPDEST POP JUMP JUMPDEST PUSH2 0x3BB DUP2 PUSH2 0x362 JUMP JUMPDEST DUP2 EQ PUSH2 0x3C6 JUMPI PUSH1 0x0 DUP1 REVERT JUMPDEST POP JUMP INVALID LOG2 PUSH5 0x6970667358 0x22 SLT KECCAK256 0xCB POP 0xD1 PUSH15 0x2C15D60D7E76F7D5B61CF76CE54CF8 CHAINID 0x5C SHR 0xFC 0xC3 0xCF PUSH27 0x9AE9C94B128864736F6C6343000800003300000000000000000000 "
				},
				"gasEstimates": {
					"creation": {
						"codeDepositCost": "204600",
						"executionCost": "245",
						"totalCost": "204845"
					},
					"external": {
						"getUpvotes(address,uint256)": "infinite",
						"upvoteCanvas(address,uint256)": "infinite",
						"upvotes(address,uint256)": "infinite"
					}
				},
				"methodIdentifiers": {
					"getUpvotes(address,uint256)": "658cffb2",
					"upvoteCanvas(address,uint256)": "ff78421e",
					"upvotes(address,uint256)": "18a8eca5"
				}
			},
			"storageLayout": {
				"storage": [
					{
						"astId": 7,
						"contract": "Upvote.sol:UpvoteManager",
						"label": "upvotes",
						"offset": 0,
						"slot": "0",
						"type": "t_mapping(t_address,t_mapping(t_uint256,t_uint256))"
					}
				],
				"types": {
					"t_address": {
						"encoding": "inplace",
						"label": "address",
						"numberOfBytes": "20"
					},
					"t_mapping(t_address,t_mapping(t_uint256,t_uint256))": {
						"encoding": "mapping",
						"key": "t_address",
						"label": "mapping(address => mapping(uint256 => uint256))",
						"numberOfBytes": "32",
						"value": "t_mapping(t_uint256,t_uint256)"
					},
					"t_mapping(t_uint256,t_uint256)": {
						"encoding": "mapping",
						"key": "t_uint256",
						"label": "mapping(uint256 => uint256)",
						"numberOfBytes": "32",
						"value": "t_uint256"
					},
					"t_uint256": {
						"encoding": "inplace",
						"label": "uint256",
						"numberOfBytes": "32"
					}
				}
			},
			"userdoc": {
				"kind": "user",
				"methods": {},
				"version": 1
			}
		}
	}
}